:100000000C9434000C9446000C9446000C9446006A
:100010000C9446000C9446000C9446000C94460048
:100020000C9446000C9446000C9446000C94460038
:100030000C9446000C9446000C9454000C9446001A
:100040000C9446000C9446000C9446000C94460018
:100050000C9446000C9446000C9446000C94460008
:100060000C9446000C94460011241FBECFEFD8E03C
:10007000DEBFCDBF21E0A0E0B1E001C01D92A33002
:10008000B207E1F70E9473000C947F000C9400000B
:1000900085B58B6085BD85E687BDEEE6F0E08081A5
:1000A00082608083789408951F920F920FB60F920A
:1000B00011248F93809100018F5F80930001823023
:1000C00029F45D9A109200018DE087BD80910001B6
:1000D000813019F45D988CEE87BD8F910F900FBE23
:1000E0000F901F9018958FEF8AB98091020181308F
:1000F00011F45C9A01C05D980E944800FFCFF8940B
:02010000FFCF2F
:00000001FF
