:100000000C9434000C9451000C9451000C94510049
:100010000C9451000C9451000C9451000C9451001C
:100020000C9451000C9451000C9451000C9451000C
:100030000C9451000C9451000C945F000C945100EE
:100040000C9451000C9451000C9451000C945100EC
:100050000C9451000C9451000C9451000C945100DC
:100060000C9451000C94510011241FBECFEFD8E026
:10007000DEBFCDBF11E0A0E0B1E0EAE1F1E002C0F7
:1000800005900D92A230B107D9F721E0A2E0B1E0CE
:1000900001C01D92A430B207E1F70E947E000C94CB
:1000A0008B000C94000085B58B6085BD85E687BD0F
:1000B000EEE6F0E0808182608083789408951F925C
:1000C0000F920FB60F9211248F93809102018F5FD0
:1000D00080930201823029F45D9A109202018FE030
:1000E00087BD80910201813019F45D988BEE87BD48
:1000F0008F910F900FBE0F901F9018958FEF8AB9B8
:1001000080910001813011F45C9A01C05D985D9A84
:0A0110000E945300FFCFF894FFCFC8
:02011A000100E2
:00000001FF
